S01000004C6F756442696B652E7372656305
S11300000C943E000C9450000C9450000C9450003E
S11300100C9450000C9450000C9450000C9450001C
S11300200C9450000C9450000C9450000C9450000C
S11300300C9450000C9450000C9450000C945000FC
S11300400C9450000C9450000C9450000C945000EC
S11300500C9450000C9450000C9450000C945000DC
S11300600C9450000C9450000C9450000C945000CC
S11300700C9450000C9450000C94500011241FBE9A
S1130080CFEFCDBFDFE3DEBF28E3A0E0B8E301C0DC
S11300901D92A131B207E1F70E941E020C94DA040A
S11300A00C940000E0E0F4E080E18283858388E042
S11300B0848BE0E4F4E092E092839583818B08954D
S11300C0E0E2F4E081E08683818308958F929F9239
S11300D0AF92BF92CF92DF92EF92FF92CF93DF93D2
S11300E04B015C01C0E0D0E002C000C02196BE011B
S11300F00D2E000C880B990B0E94BD036B017C0133
S113010020E030E04AE754E4C501B4010E946D04E4
S11301109B01AC01C701B6010E94440388232CF360
S1130120DF91CF91FF90EF90DF90CF90BF90AF9091
S11301309F908F900895BF92CF92DF92EF92FF929B
S11301400F931F93CF93DF93C0E0D0E032C0BE0182
S11301500D2E000C880B990B0E94BD032DEC3CEC7A
S11301604CEC5CE30E946D0420E030E04AE754E488
S11301700E9449039B01AC016DEC7CEC8CEC9CE38C
S11301800E94D7026B017C0100E214E0BB24B3940B
S1130190F801B5820E946600F801B682A7019601B3
S11301A06BE17FE28DED9CE30E94D7020E94660022
S11301B02196C83EF3E0DF0754F2DF91CF911F91FF
S11301C00F91FF90EF90DF90CF90BF9008951F9311
S11301D0CF93DF93882391F0C0E2D4E011E01D8334
S11301E062E173E880EC9CE30E9466001E836CE18C
S11301F07FE28DE59CE30E94660003C081E080936A
S11302002604DF91CF911F910895E0E2F4E090E29B
S1130210968380E18683918381838AEF90E0809343
S11302200038909301380895882321F080E2809368
S11302302504089580E2809326040895882321F0FC
S113024080E180932504089580E180932604089535
S1130250E0E0F4E080E2868380E8868384E0858BB6
S1130260878BE0EAF6E081E4808381E18093A0005B
S11302708DE28183E0E8F6E083E0828381EB808392
S11302801092093808950E94D20220910A383091C0
S11302900B388217930709F4D0C00E94D2028093CE
S11302A00A3890930B388091043890910538009760
S11302B029F0019780930438909305388091093888
S11302C08230E9F128F4882361F08130E9F008955F
S11302D0843009F499C008F45CC0853009F4AAC0DC
S11302E008958DE28093A1068AE090E0809304381B
S11302F090930538109207381092083810920638F7
S113030081E08093093808958091870684FD03C0B5
S113031085E0809309388091043890910538892BC1
S113032009F08BC08FE28093A10680E197E280936D
S113033004389093053883E080930938089580E069
S11303400E94E7000E94C102882351F080E197E2F5
S1130350809304389093053883E080930938089596
S11303608091043890910538892B09F066C08091FA
S11303700638882309F461C081E00E94E70084E61E
S113038090E0809304389093053884E08093093892
S113039008950E94C102882369F181E00E94E70068
S11303A08091043890910538892B11F40E94C4027D
S11303B08091870684FD12C0809107389091083897
S11303C00196809307389093083884369105A8F1F4
S11303D081E0809306380E941401089580910738C3
S11303E090910838009749F10197809307389093CA
S11303F00838089584E690E0809304389093053893
S113040082E08093093808950E94C102882349F04C
S113041080E197E2809304389093053883E08093D9
S113042009388091043890910538892B19F480E0BB
S11304300E94E70081E00E941401089588ED21E004
S113044030E084BF2093610090E084BF909360000B
S11304500E94C7020E9405010E9479020E94520074
S11304600E9460000E94280110920C387894A8958C
S11304700E948A028091080484FD25C080910C3872
S113048081110CC098ED21E030E094BF209361000D
S113049081E094BF8093600080930C3880E00E94D8
S11304A0E7008091480481FF07C080E00E941401A6
S11304B081E00E941E01DBCF81E00E94140180E0F4
S11304C00E941E01D4CF80910C38813061F488EDF4
S11304D021E030E084BF2093610090E084BF9093DA
S11304E0600010920C3880E00E941E010E944301BB
S11304F0BECFE0E2F4E082E08283858388E0818BF2
S113050010920E3810920F388EE080930D381092AE
S1130510103808950E94D20220910E3830910F387D
S11305208217930769F10E94D20280930E38909348
S11305300F388091280481FD12C080910D388F3FBF
S113054019F08F5F80930D3880910D388F30C1F48E
S11305508FEF80930D3881E0809310380895809157
S11305600D38882319F0815080930D3880910D380F
S1130570803F31F410920D38109210380E949B0085
S1130580089580911038089510921038089580913C
S113059041018111FCCFE0E4F1E081E0878381E84F
S11305A0808308958091480190914901089550589D
S11305B0BB27AA270E94EF020C9433040E9425044F
S11305C038F00E942C0420F039F49F3F19F426F4EB
S11305D00C9422040EF4E095E7FB0C941C04E92F20
S11305E00E94440458F3BA176207730784079507F7
S11305F020F079F4A6F50C9466040EF4E0950B2E25
S1130600BA2FA02D0B01B90190010C01CA01A00160
S11306101124FF27591B99F0593F50F4503E68F1BB
S11306201A16F040A22F232F342F4427585FF3CFFC
S1130630469537952795A795F0405395C9F77EF4CD
S11306401F16BA0B620B730B840BBAF09150A1F016
S1130650FF0FBB1F661F771F881FC2F70EC0BA0F9C
S1130660621F731F841F48F4879577956795B79524
S1130670F7959E3F08F0B0CF9395880F08F099271F
S1130680EE0F9795879508950E94F80308F481E08A
S113069008950E945D030C9433040E942C0458F0C6
S11306A00E94250440F029F45F3F29F00C941C04B7
S11306B051110C9467040C9422040E94440468F3BE
S11306C09923B1F3552391F3951B550BBB27AA2707
S11306D062177307840738F09F5F5F4F220F331F41
S11306E0441FAA1FA9F335D00E2E3AF0E0E832D009
S11306F091505040E695001CCAF72BD0FE2F29D00C
S1130700660F771F881FBB1F261737074807AB07DD
S1130710B0E809F0BB0B802DBF01FF2793585F4F52
S11307203AF09E3F510578F00C941C040C94670435
S11307305F3FE4F3983ED4F3869577956795B79534
S1130740F7959F5FC9F7880F911D9695879597F93F
S11307500895E1E0660F771F881FBB1F62177307B8
S11307608407BA0720F0621B730B840BBA0BEE1FCD
S113077088F7E0950895E89409C097FB3EF49095B6
S11307808095709561957F4F8F4F9F4F9923A9F066
S1130790F92F96E9BB279395F695879577956795F5
S11307A0B795F111F8CFFAF4BB0F11F460FF1BC039
S11307B06F5F7F4F8F4F9F4F16C0882311F096E9CC
S11307C011C0772321F09EE8872F762F05C066237A
S11307D071F096E8862F70E060E02AF09A95660F33
S11307E0771F881FDAF7880F9695879597F90895EC
S11307F0990F0008550FAA0BE0E8FEEF161617062E
S1130800E807F907C0F012161306E407F50798F095
S1130810621B730B840B950B39F40A2661F0232BAE
S1130820242B252B21F408950A2609F4A140A6952A
S11308308FEF811D811D089597F99F6780E870E00F
S113084060E008959FEF80EC089500240A94161642
S1130850170618060906089500240A9412161306AA
S1130860140605060895092E0394000C11F4882338
S113087052F0BB0F40F4BF2B11F460FF04C06F5F54
S11308807F4F8F4F9F4F089557FD9058440F551F2A
S113089059F05F3F71F04795880F97FB991F61F0FE
S11308A09F3F79F087950895121613061406551F75
S11308B0F2CF4695F1DF08C0161617061806991FE1
S11308C0F1CF86957105610508940895E894BB27D6
S11308D066277727CB0197F908950E9480040C942A
S11308E033040E94250438F00E942C0420F0952340
S11308F011F00C941C040C94220411240C9467042D
S11309000E94440470F3959FC1F3950F50E0551F66
S1130910629FF001729FBB27F00DB11D639FAA2750
S1130920F00DB11DAA1F649F6627B00DA11D661F9F
S1130930829F2227B00DA11D621F739FB00DA11DC0
S1130940621F839FA00D611D221F749F3327A00D7A
S1130950611D231F849F600D211D822F762F6A2F16
S113096011249F5750409AF0F1F088234AF0EE0F7B
S1130970FF1FBB1F661F771F881F91505040A9F7A8
S11309809E3F510580F00C941C040C9467045F3F57
S1130990E4F3983ED4F3869577956795B795F795E4
S11309A0E7959F5FC1F7FE2B880F911D969587955C
S10B09B097F90895F894FFCFB4
S9030000FC
