:100000000C943E000C9450000C9450000C94500042
:100010000C9450000C9450000C9450000C94500020
:100020000C9450000C9450000C9450000C94500010
:100030000C9450000C9450000C9450000C94500000
:100040000C9450000C9450000C9450000C945000F0
:100050000C9450000C9450000C9450000C945000E0
:100060000C9450000C9450000C9450000C945000D0
:100070000C9450000C9450000C94500011241FBE9E
:10008000CFEFCDBFDFE3DEBF28E3A0E0B8E301C0E0
:100090001D92A131B207E1F70E94A6010C945D0206
:1000A0000C940000E0E0F4E080E18283858388E046
:1000B000848BE0E4F4E092E092839583818B089551
:1000C000E0E2F4E081E0868381830895882309F1EA
:1000D00081E08093250480E090E007C0E7E8F3E149
:1000E0003197F1F700C00000019618161906B4F711
:1000F00081E08093260480E090E007C0E7E8F3E128
:100100003197F1F700C00000019685309105B4F3F6
:10011000089581E0809326040895E0E2F4E090E2FF
:10012000968380E18683918381838AEF90E0809338
:100130000038909301380895882321F080E280935D
:100140002504089580E2809326040895882321F0F1
:1001500080E180932504089580E18093260408952A
:10016000E0E0F4E080E2868380E8868384E0858BAB
:10017000878BE0EAF6E081E4808381E18093A00050
:100180008DE28183E0E8F6E083E0828381EB808387
:100190001092093808950E94580220910A3830912F
:1001A0000B388217930709F4D0C00E94580280933D
:1001B0000A3890930B388091043890910538009755
:1001C00029F001978093043890930538809109387D
:1001D0008230E9F128F4882361F08130E9F0089554
:1001E000843009F499C008F45CC0853009F4AAC0D1
:1001F00008958DE28093A1068AE090E08093043810
:1002000090930538109207381092083810920638EB
:1002100081E08093093808958091870684FD03C0AA
:1002200085E0809309388091043890910538892BB6
:1002300009F08BC08FE28093A10680E197E2809362
:1002400004389093053883E080930938089580E05E
:100250000E9466000E944702882351F080E197E2E5
:10026000809304389093053883E08093093808958B
:100270008091043890910538892B09F066C08091EF
:100280000638882309F461C081E00E94660084E694
:1002900090E0809304389093053884E08093093887
:1002A00008950E944702882369F181E00E94660058
:1002B0008091043890910538892B11F40E944A02EC
:1002C0008091870684FD12C080910738909108388C
:1002D0000196809307389093083884369105A8F1E9
:1002E00081E0809306380E949C0008958091073831
:1002F00090910838009749F10197809307389093BF
:100300000838089584E690E0809304389093053887
:1003100082E08093093808950E944702882349F0BB
:1003200080E197E2809304389093053883E08093CE
:1003300009388091043890910538892B19F480E0B0
:100340000E94660081E00E949C00089588ED21E0F3
:1003500030E084BF2093610090E084BF9093600000
:100360000E944D020E948D000E9401020E945200D4
:100370000E9460000E94B00010920C387894A895FA
:100380000E9412028091080484FD25C080910C38DF
:1003900081110CC098ED21E030E094BF2093610002
:1003A00081E094BF8093600080930C3880E00E94CD
:1003B00066008091480481FF07C080E00E949C0095
:1003C00081E00E94A600DBCF81E00E949C0080E0DB
:1003D0000E94A600D4CF80910C38813061F488ED62
:1003E00021E030E084BF2093610090E084BF9093CF
:1003F000600010920C3880E00E94A6000E94CB00A2
:10040000BECFE0E2F4E082E08283858388E0818BE6
:1004100010920E3810920F388EE080930D381092A3
:10042000103808950E94580220910E3830910F38EC
:100430008217930759F10E94580280930E389093C7
:100440000F388091280481FD12C080910D388F3FB4
:1004500019F08F5F80930D3880910D388F30B1F493
:100460008FEF80930D3881E080931038089580914C
:100470000D38882319F0815080930D3880910D3804
:10048000803F21F410920D38109210380895809119
:10049000103808951092103808958091410181110B
:1004A000FCCFE0E4F1E081E0878381E88083089578
:0E04B00080914801909149010895F894FFCF82
:00000001FF
